:100000000C94DB000C9403010C9403010C94030189
:100010000C9403010C9403010C9403010C948B06C3
:100020000C9403010C9403010C9403010C94030140
:100030000C9403010C9403010C9403010C94030130
:100040000C9441060C9403010C9403010C940301DD
:100050000C9403010C9403010C9403010C94030110
:100060000C9403010C94030100407A10F35A00A091
:10007000724E18090010A5D4E80000E87648170071
:1000800000E40B54020000CA9A3B000000E1F505B1
:10009000000080969800000040420F000000A086FB
:1000A00001000000102700000000E803000000002D
:1000B0006400000000000A000000000001000000D1
:1000C00000002C76D888DC674F0823DFC1DFAE59EB
:1000D000E1B1B796E5E3E453C63AE651997696E87E
:1000E000E6C28426EB898C9B62ED407C6FFCEFBC02
:1000F0009C9F40F2BAA56FA5F490055A2AF75C932D
:100100006B6CF9676DC11BFCE0E40D47FEF520E662
:10011000B500D0ED902E0300943577050080841E45
:10012000080000204E0A000000C80C333333330FA0
:10013000986E12831141EF8D2114893BE65516CF3D
:10014000FEE6DB18D1844B381BF77C1D901DA4BB49
:10015000E424203284725E228100C9F124ECA1E5FE
:100160003D27000000080002010000030407000012
:100170000000000000000200000000250028002B05
:100180000000000000240027002A000404040404E6
:100190000404040202020202020303030303030134
:1001A000020408102040800102040810200102040B
:1001B00008102000400911241FBECFEFD8E0DEBF99
:1001C000CDBF21E0AAE7B1E001C01D92A43BB20778
:1001D000E1F711E0A0E0B1E0E8E6F0E202C005904E
:1001E0000D92AA37B107D9F710E0CBEDD0E004C0EB
:1001F0002197FE010E94300ECA3DD107C9F70E9427
:10020000E7060C9432100C94000090E0FC01E156DB
:10021000FE4F2491FC01E557FE4F8491882399F00D
:1002200090E0880F991FFC01EF57FE4FA591B49104
:10023000FC01E958FE4F859194918FB7F894EC91A9
:10024000E22BEC938FBF08958F929F92AF92BF9253
:10025000CF92DF92EF92FF921F93CF93DF93EC0147
:1002600080910201823021F08F3F09F0EEC104C07D
:10027000E6E7F1E014916EC082E080930201E6E7C8
:10028000F1E014911F3F09F4E0C1113009F440C0BE
:1002900030F1123009F05EC01092B0001092B1003F
:1002A0008091B00082608093B0008091B100816045
:1002B0008093B100EDE8F1E0E491F0E0EE0FFF1F74
:1002C000E958FE4F8591949190938901809388011C
:1002D000E1EAF1E0E491E093870112E0B2C114BCDD
:1002E00015BC84B5826084BD85B5816085BDEDE8AF
:1002F000F1E0E491F0E0EE0FFF1FE958FE4F859129
:100300009491E1EAF1E0E491E0938B0110E099C16E
:10031000109280001092810080918100886080930B
:10032000810080918100816080938100EDE8F1E09F
:10033000E491F0E0EE0FFF1FE958FE4F8591949194
:10034000E1EAF1E0E491E0938A0182E00E94050194
:1003500011E0A4C017FD79C182E00E940501812F40
:100360008D7F09F09BC06E01E12CF12C60E072E101
:100370008AE790E0A70196010E94EF0D49015A011A
:10038000BA01A90141505109610971094F3F510555
:100390006105710509F008F445C060E472E48FE07E
:1003A00090E0A70196010E94EF0DBA01A90141500A
:1003B0005109610971091230E9F44F3F5105610596
:1003C000710509F008F4DDC060E970ED83E090E0AC
:1003D000A70196010E94EF0DBA01A90141505109F0
:1003E000610971094F3F51056105710509F020F55B
:1003F00083E04DC04F3F510561057105A9F0A0F0A4
:1004000068E478EE81E090E0A70196010E94EF0D8C
:10041000BA01A9014150510961097109112309F477
:10042000E1C0D8C081E001C082E0111130C095B5B3
:10043000987F892B85BD69C068E478EE81E090E003
:10044000A70196010E94EF0DBA01A901415051097F
:10045000610971094F3F51056105710509F008F403
:100460008EC064E274EF80E090E0A70196010E94E4
:10047000EF0DBA01A90141505109610971094F3FBE
:1004800051056105710511F008F07DC085E090917E
:10049000B100987F892B8093B10031C06E01E12CAF
:1004A000F12C60E072E18AE790E0A70196010E94DA
:1004B000EF0DBA01A90141505109610971094115B6
:1004C000510581E06807710580F068E478EE81E00D
:1004D00090E0A70196010E94EF0DBA01A9014150D9
:1004E00051096109710983E001C081E0113039F4DB
:1004F00090918100987F892B8093810018C01130E2
:10050000B1F0123049F11111A0C047BD8FEF9FEF3C
:10051000DC018093940190939501A0939601B09390
:10052000970180916E00826080936E008EC0509320
:100530008900409388008FEF9FEFDC01809390014A
:1005400090939101A0939201B093930180916F00D9
:10055000826080936F0079C04093B3008FEF9FEF6C
:10056000DC0180938C0190938D01A0938E01B09358
:100570008F018091700082608093700066C084E07B
:1005800086CF82E084CF62E17AE780E090E0A70145
:1005900096010E94EF0DBA01A9014150510961096C
:1005A00071094F3F51056105710591F088F0D50142
:1005B000C4012AE0B595A795979587952A95D1F717
:1005C000AC01BD01415051096109710987E05FCF5C
:1005D00086E05DCF4F3F51056105710509F098F642
:1005E00084E023CF4F3F51056105710541F138F19A
:1005F00062E17AE780E090E0A70196010E94EF0DAA
:10060000BA01A90141505109610971094F3F5105D2
:100610006105710591F088F0D501C4013AE0B59506
:10062000A795979587953A95D1F7AC01BD014150B3
:1006300051096109710985E0FACE84E0F8CE83E0C2
:10064000F6CE82E00E9405018ECEDF91CF911F9100
:10065000FF90EF90DF90CF90BF90AF909F908F90E2
:10066000089590E0FC01EE59FE4F2491FC01E15603
:10067000FE4F3491FC01E557FE4FE491EE2309F45F
:100680003CC0222339F1233091F038F42130A9F015
:10069000223001F584B58F7D12C0273091F02830CB
:1006A000A1F02430B9F4809180008F7D03C0809147
:1006B00080008F77809380000DC084B58F7784BDD4
:1006C00009C08091B0008F7703C08091B0008F7D0A
:1006D0008093B000F0E0EE0FFF1FE958FE4FA591A8
:1006E000B4919FB7F894611104C08C913095382370
:1006F00002C0EC913E2B3C939FBF08953FB7F89406
:100700008091830190918401A0918501B09186012F
:1007100026B5A89B05C02F3F19F00196A11DB11D5C
:100720003FBFBA2FA92F982F8827820F911DA11D97
:10073000B11DBC01CD0142E0660F771F881F991FD4
:100740004A95D1F708958F929F92AF92BF92CF9220
:10075000DF92EF92FF926B017C010E947E034B01BE
:100760005C01C114D104E104F104F1F00E947E03A4
:10077000DC01CB0188199909AA09BB09883E93407D
:10078000A105B10570F321E0C21AD108E108F10812
:1007900088EE880E83E0981EA11CB11CC114D10400
:1007A000E104F10419F7DDCFFF90EF90DF90CF90D7
:1007B000BF90AF909F908F90089590910201891300
:1007C00024C0E6E7F1E0E4919FEF90930201E1306D
:1007D000B9F098F0E230C9F4909170009D7F909349
:1007E000700091E09093B0009091B100987F946078
:1007F0009093B1001092B30008C010926E0005C033
:1008000090916F009D7F90936F0060E00C94310396
:10081000CF92DF92EF92FF920F931F93CF93DF93CC
:100820006C017A018B01C0E0D0E0CE15DF0581F0CC
:10083000D8016D918D01D601ED91FC910190F0816F
:10084000E02DC6010995892B11F02196EECF7E018E
:10085000C701DF91CF911F910F91FF90EF90DF9033
:10086000CF900895CF93DF93EC0160E08E810E94DA
:10087000310361E08E810E94310360E08E810E942D
:1008800031038BE891E00197F1F7DF91CF91089563
:10089000CF92DF92EF92FF920F931F93CF93DF934C
:1008A0006C017C0187E0E80EF11CC0E0D0E0062F6F
:1008B00010E0B8010C2E02C0759567950A94E2F716
:1008C0006170F70181917F010E9431032196C4304C
:1008D000D10579F7C601DF91CF911F910F91FF905C
:1008E000EF90DF90CF900C943204CF92DF92EF9292
:1008F000FF920F931F93CF93DF93EC01F62E642F9B
:100900008C810E9431038D818F3F19F060E00E943D
:1009100031038F850F2D10E084FF25C06E0187E025
:10092000C80ED11CE12CF12CB8010E2C02C075951B
:1009300067950A94E2F76170F60181916F010E9458
:100940003103FFEFEF1AFF0A88E0E816F10461F7C0
:10095000CE01DF91CF911F910F91FF90EF90DF902B
:10096000CF900C943204B80184E0759567958A9510
:10097000E1F7CE010E9448046F2DCE01DF91CF91A7
:100980001F910F91FF90EF90DF90CF900C9448044F
:1009900040E0682F88E991E00C94750481E00E94A2
:1009A000C8048BE39FE10197F1F70895CF93DF939C
:1009B000823028F09091A70198609093A7018093CE
:1009C000AB011092AC0180E48093AD0180E1809393
:1009D000AE0180E58093AF0180919C010E940501EA
:1009E00080919D018F3F11F00E94050180919E0131
:1009F0000E940501C8E9D1E09E012859314080914B
:100A0000A70184FD03C084E090E002C088E090E08C
:100A100021962817390724F48E810E940501ECCF16
:100A20008BE39DE00197F1F760E080919C010E94CB
:100A3000310360E080919E010E94310380919D010D
:100A40008F3F19F060E00E9431038091A70184FD7F
:100A500020C063E088E991E00E944804CBE4D6E43A
:100A6000CE010197F1F763E088E991E00E94480424
:100A70002197F1F763E088E991E00E94480483E55B
:100A800092E00197F1F762E088E991E00E94480462
:100A900015C080620E94C8048BE496E40197F1F7C8
:100AA0008091A70180620E94C80483E592E00197CB
:100AB000F1F78091A70180620E94C8048091A7018C
:100AC00080620E94C80484E08093A8018CE00E94A8
:100AD000C8040E94CE0482E08093A90186E0DF91E1
:100AE000CF910C94C80482E00E94C8048BE39FE17C
:100AF0000197F1F70895E091AB01E23010F4E15075
:100B000001C0E1E0F0E0E856FE4F848980680C9473
:100B1000C80441E00E94750481E090E008950895C2
:100B200080E090E00895CF92DF92EF92FF928E30B6
:100B300008F08E508770806480937C0080917A00EA
:100B4000806480937A0080917A0086FDFCCF60916A
:100B500078008091790070E0782B072E000C880BCC
:100B6000990B0E94B70B20E030EC4FE754E40E9451
:100B7000780D6B017C018EE480937C0062E070E074
:100B800080E090E00E94A30380917A0080648093CB
:100B90007A0080917A0086FDFCCF809178002091C8
:100BA000790030E0322F2227A901330F660B770B33
:100BB0009A01AB01282B60E070E381E190E00E9494
:100BC000EF0DCA01B9010E94B70B20E030E04AE7FF
:100BD00054E40E94780DA70196010E94160CFF9024
:100BE000EF90DF90CF900895009769F0FC0101909D
:100BF0000020E9F73197AF01481B590BBC0188E988
:100C000091E00C94080480E090E00895CF93DF9386
:100C1000EC0188819981009711F00E94CE0E198213
:100C200018821D821C821B821A82DF91CF91089547
:100C30000E941D100F931F93CF93DF93EC018881C7
:100C40009981009729F02A813B812617370788F47C
:100C50008B016F5F7F4F0E94570F009761F0998360
:100C600088831B830A832C813D81232B11F4FC0193
:100C7000108281E001C080E0DF91CF911F910F9140
:100C800008951F920F920FB60F9211242F933F9346
:100C90008F939F93AF93BF9380917F019091800139
:100CA000A0918101B091820130917E0123E0230F58
:100CB0002D3720F40196A11DB11D05C026E8230F94
:100CC0000296A11DB11D20937E0180937F01909318
:100CD0008001A0938101B093820180918301909162
:100CE0008401A0918501B09186010196A11DB11DDD
:100CF0008093830190938401A0938501B093860132
:100D0000BF91AF919F918F913F912F910F900FBE07
:100D10000F901F9018951F920F920FB60F921124EB
:100D20002F933F934F935F936F937F938F939F93F3
:100D3000AF93BF93EF93FF9380918C0190918D01BE
:100D4000A0918E01B0918F01892B8A2B8B2B51F1B1
:100D500090918701E0918801F09189018081892734
:100D6000808380918C0190918D01A0918E01B09132
:100D70008F01181619061A061B06C4F480918C01FF
:100D800090918D01A0918E01B0918F010197A109E1
:100D9000B10980938C0190938D01A0938E01B09343
:100DA0008F0104C0809102010E94DD03FF91EF9149
:100DB000BF91AF919F918F917F916F915F914F9173
:100DC0003F912F910F900FBE0F901F901895CF93CA
:100DD000DF93CDB7DEB7A7970FB6F894DEBF0FBE8F
:100DE000CDBF789484B5826084BD84B5816084BDB4
:100DF00085B5826085BD85B5816085BD80916E00B9
:100E0000816080936E0010928100809181008260E9
:100E10008093810080918100816080938100809126
:100E200080008160809380008091B1008460809315
:100E3000B1008091B00081608093B00080917A0011
:100E4000846080937A0080917A00826080937A0037
:100E500080917A00816080937A0080917A00806826
:100E600080937A001092C10082E00E94D60482E052
:100E70000E94050160E082E00E9431030E94CE04DE
:100E80000E94730585E191E00E94F4050E947B05B4
:100E900086E291E00E94F40588EE93E00E9424012E
:100EA00064EF71E080E090E00E94A30382E00E9482
:100EB000DD0388E592E00E9424016AEF70E080E0A3
:100EC00090E00E94A30382E00E94DD0388EC90E0A2
:100ED0000E9424016AEF70E080E090E00E94A3038A
:100EE00082E00E94DD0380E991E00E9424016AEF24
:100EF00070E080E090E00E94A30382E00E94DD03A6
:100F000082E00E94050160E082E00E94310368EE09
:100F100073E080E090E00E94A3030E94CE040E9450
:100F2000730580E0C82E80E0D82EFF24F394109142
:100F30007D01111102C0F092010180E190E00E9458
:100F4000930520E030E040E050E40E94EA0D1816DE
:100F5000BCF48FE090E00E9493059B01AC010E94DD
:100F60000C0D9B01AC010E940C0D26E636E646E80E
:100F700050E40E940B0D4B015C01EE24E3940BC086
:100F80008FE090E00E9493059B01AC010E940C0D44
:100F90004B015C01E12C8FE090E00E94930523E37C
:100FA00033E343E550E40E94B00B87FF56C08091C5
:100FB0007C01811152C0E11050C0112309F44DC0D1
:100FC0000E94CE040E9473058EE591E00E94F40514
:100FD0000E947B058BE691E00E94F40586E990E093
:100FE0000E9424016AEF70E080E090E00E94A30379
:100FF00082E00E94DD0382E00E94050160E082E061
:101000000E9431036AEF70E080E090E00E94A30349
:1010100082E00E94DD0386E990E00E9424016AEFED
:1010200070E080E090E00E94A30382E00E94DD0374
:1010300082E00E94050160E082E00E9431030E948C
:10104000CE04F0927C0180910101882319F0109266
:101050007B0111C0F0927B010EC08FE090E00E94F6
:10106000930523E333E343E550E40E94EA0D87FD53
:10107000F1CF10927C010E9473051BA21AA21DA23F
:101080001CA21FA21EA28E010F5F1F4F23E045E08E
:10109000C501B4010E945E095C01009779F0FC0172
:1010A00001900020E9F731978F01081B190BB80157
:1010B000CE0182960E941A06811105C0CE01829649
:1010C0000E94060607C01FA30EA3B5018AA19BA11B
:1010D0000E942B101A8219821C821B821E821D8282
:1010E00069E070E0CE0101960E941A06811105C0E8
:1010F000CE0101960E9406060AC089E090E09E8318
:101100008D8367E371E089819A810E942B108EA103
:101110009FA1AAA0BBA0A114B10409F4A7C0009785
:10112000B9F00D811E81080F191FB801CE0101967B
:101130000E941A06882309F499C029813A818D8179
:101140009E81B501820F931F0E942B101E830D8379
:101150000D811E810C5F1F4FB801CE0101960E94C8
:101160001A06882309F487C029813A818D819E81DE
:1011700061E471E0820F931F0E942B101E830D8388
:101180004D815E8169817A8188E991E00E9408043D
:1011900089819A810E94CE0E8AA19BA10E94CE0EC7
:1011A0000E947B05EE2009F186E491E00E94F4059F
:1011B00080910001811116C088EE93E00E94240105
:1011C0006AEF70E080E090E00E94A30382E00E945A
:1011D000DD0382E00E94050160E082E00E943103AD
:1011E000F092000110927C012EC082E591E00E94F5
:1011F000F405809100018823F9F080917D01882316
:10120000D9F080917B018823B9F088E592E00E94B3
:1012100024016AEF70E080E090E00E94A30382E086
:101220000E94DD0382E00E94050160E082E00E94EE
:1012300031031092010105C080917A018111F09271
:101240000101109200016AEF70E080E090E00E94DE
:10125000A30380917D0180937A01F0927D01C114F6
:10126000D10409F464CE0E94000061CECE01019643
:101270000E9406066DCFCE0101960E94060680CF21
:10128000E8E9F1E0138212828DE091E0918380839E
:1012900088E084838FEF858389E0868384E0878379
:1012A00085E0808786E0818787E0828713861486C1
:1012B00015861686178681E00C94D604EF920F935C
:1012C0001F93CF93DF93E80147FD02C034E001C0D4
:1012D00034E1042E000C550B57FF03C05195419586
:1012E0005109E32E022F242FAE010E947E09CE0168
:1012F000DF91CF911F910F91EF900895A9E0B0E099
:10130000E4E8F9E00C94DA0C6A01122FB02E2BE31A
:10131000201720F0FF24F394F00E02C02CE3F22EED
:101320000F2D27E0AE014F5F5F4F0E94D80ABC012E
:101330004981842F8970813031F0E1FC06C0E0FEE4
:1013400006C090E205C09DE203C09BE201C090E0B0
:101350005E2D507143FF3CC0911102C083E001C07B
:1013600084E0811718F4212F281B01C020E05111BF
:101370000BC0F601822F30E2882319F0319381509F
:10138000FBCFC20ED11C20E0992329F0D6019C93FB
:10139000F60131966F01C6010396E2FE0AC03EE4F3
:1013A000D6013C9341E411964C93119712963C93CD
:1013B00006C03EE6F601308341E641833283FC01FC
:1013C000322F40E2332309F442C041933150FACF27
:1013D00042FF44C0911102C083E001C084E0811744
:1013E00018F4212F281B01C020E051110BC0F60179
:1013F000822F30E2882319F031938150FBCFC20E47
:10140000D11C20E0992329F0D6019C93F601319656
:101410006F01C6010396E2FE0BC039E4D6013C938E
:101420003EE411963C93119736E412963C9307C024
:1014300039E6F60130833EE6318336E63283FC013D
:10144000322F40E2332319F041933150FBCFFC019E
:10145000E20FF11D10828EEF9FEFA6C021E030E079
:10146000911102C020E030E0161617061CF4FB01B3
:10147000319602C0E1E0F0E02E0F3F1FBB2021F0CB
:10148000EB2DF0E0319602C0E0E0F0E02E0F3F1FC0
:10149000E12FF0E02E173F071CF4121B212F01C093
:1014A00020E08E2D887159F4F601822F30E28823D6
:1014B00019F031938150FBCFC20ED11C20E099234B
:1014C00029F0D6019C93F60131966F0151110BC0A2
:1014D000F601822F90E3882319F091938150FBCF7E
:1014E000C20ED11C20E00F2D060F9A81342F3071CF
:1014F00044FF03C0913309F40150101624F409305D
:1015000018F008E001C001E0AB0177FF02C040E045
:1015100050E0FB01E41BF50BA1E0B0E0AC0FBD1FF8
:10152000EA0FFB1F8EE2A82E4B01801A91080B2DAB
:1015300010E01195019511094F3FBFEF5B0721F4B2
:10154000D601AC9211966D01641775072CF08416C4
:10155000950614F4818101C080E341505109319610
:10156000D60111967D014017510724F0D6018C93C6
:101570006701E2CF6417750739F4963320F4953389
:1015800019F4311101C081E3F6018083F701822F44
:1015900090E2882319F091938150FBCFF701E20F7D
:1015A000F11D108280E090E02996ECE00C94F60C9E
:1015B000283008F027E03327DA01990F311D87FD25
:1015C000916000966105710539F432602E5F3D939C
:1015D00030E32A95E1F708959F3F30F08038710598
:1015E000610509F03C5F3C5F3D93913008F08068F5
:1015F000911DDF93CF931F930F93FF92EF92192FBB
:10160000987F9695E92F96959695E90FFF27EE53CB
:10161000FF4F99273327EE24FF24A701E701059008
:101620000894079428F4360FE71EF81E491F511D31
:10163000660F771F881F991F0694A1F705900794DE
:1016400028F4E70EF81E491F561FC11D770F881F8B
:10165000991F661F0694A1F70590079428F4F80EC9
:10166000491F561FC71FD11D880F991F661F771F5F
:101670000694A1F70590079420F4490F561FC71F41
:10168000D81F990F661F771F881F0694A9F78491AA
:101690001095177041F0D695C79557954795F794D3
:1016A000E7941A95C1F7E8E6F0E068941590159173
:1016B00035916591959105907FE27395E118F10A56
:1016C000430B560BC90BD009C0F7E10CF11E431FA9
:1016D000561FC91FD01D7EF4703311F48A95E6CFD2
:1016E000E894015030F0080F0AF40027021708F4BC
:1016F000202F2395022F7A3328F079E37D932A95C2
:10170000E9F710C07D932A9589F606949795679519
:10171000379517951794E118F10A430B560BC90B2F
:10172000D00998F023957E9173957A3308F070E391
:101730007C932013B8F77E9170617D9330F0839590
:1017400071E37D9370E32A95E1F71124EF90FF9008
:101750000F911F91CF91DF91992787FD9095089563
:101760000E94F20B08F481E00895E89409C097FB09
:101770003EF490958095709561957F4F8F4F9F4F68
:101780009923A9F0F92F96E9BB279395F6958795AC
:1017900077956795B795F111F8CFFAF4BB0F11F46F
:1017A00060FF1BC06F5F7F4F8F4F9F4F16C0882316
:1017B00011F096E911C0772321F09EE8872F762F4C
:1017C00005C0662371F096E8862F70E060E02AF08D
:1017D0009A95660F771F881FDAF7880F9695879579
:1017E00097F90895990F0008550FAA0BE0E8FEEF4E
:1017F00016161706E807F907C0F012161306E407D5
:10180000F50798F0621B730B840B950B39F40A26CD
:1018100061F0232B242B252B21F408950A2609F4AB
:10182000A140A6958FEF811D811D08950E94290C6E
:101830000C949A0C0E948C0C38F00E94930C20F0AF
:10184000952311F00C94830C0C94890C11240C94A6
:10185000CE0C0E94AB0C70F3959FC1F3950F50E036
:10186000551F629FF001729FBB27F00DB11D639F52
:10187000AA27F00DB11DAA1F649F6627B00DA11DF8
:10188000661F829F2227B00DA11D621F739FB00D9E
:10189000A11D621F839FA00D611D221F749F33270E
:1018A000A00D611D231F849F600D211D822F762FA7
:1018B0006A2F11249F5750409AF0F1F088234AF084
:1018C000EE0FFF1FBB1F661F771F881F91505040F0
:1018D000A9F79E3F510580F00C94830C0C94CE0C1C
:1018E0005F3FE4F3983ED4F3869577956795B79577
:1018F000F795E7959F5FC1F7FE2B880F911D969591
:10190000879597F9089597F99F6780E870E060E000
:1019100008959FEF80EC089500240A941616170688
:1019200018060906089500240A94121613061406D0
:1019300005060895092E0394000C11F4882352F033
:10194000BB0F40F4BF2B11F460FF04C06F5F7F4FEB
:101950008F4F9F4F089557FD9058440F551F59F0D2
:101960005F3F71F04795880F97FB991F61F09F3F8C
:1019700079F087950895121613061406551FF2CFB5
:101980004695F1DF08C0161617061806991FF1CF05
:1019900086957105610508940895E894BB2766272C
:1019A0007727CB0197F908952F923F924F925F923C
:1019B0006F927F928F929F92AF92BF92CF92DF925F
:1019C000EF92FF920F931F93CF93DF93CDB7DEB7C4
:1019D000CA1BDB0B0FB6F894DEBF0FBECDBF099458
:1019E0002A88398848885F846E847D848C849B84AF
:1019F000AA84B984C884DF80EE80FD800C811B81BD
:101A0000AA81B981CE0FD11D0FB6F894DEBF0FBEEB
:101A1000CDBFED0108955058BB27AA270E94230D82
:101A20000C949A0C0E948C0C38F00E94930C20F0BD
:101A300039F49F3F19F426F40C94890C0EF4E095C8
:101A4000E7FB0C94830CE92F0E94AB0C58F3BA17F8
:101A5000620773078407950720F079F4A6F50C94C4
:101A6000CD0C0EF4E0950B2EBA2FA02D0B01B90171
:101A700090010C01CA01A0011124FF27591B99F004
:101A8000593F50F4503E68F11A16F040A22F232F10
:101A9000342F4427585FF3CF469537952795A79560
:101AA000F0405395C9F77EF41F16BA0B620B730B07
:101AB000840BBAF09150A1F0FF0FBB1F661F771F78
:101AC000881FC2F70EC0BA0F621F731F841F48F42D
:101AD000879577956795B795F7959E3F08F0B0CFB6
:101AE0009395880F08F09927EE0F9795879508959D
:101AF0000E948C0D0C949A0C0E94930C58F00E943A
:101B00008C0C40F029F45F3F29F00C94830C5111A8
:101B10000C94CE0C0C94890C0E94AB0C68F39923A6
:101B2000B1F3552391F3951B550BBB27AA276217D9
:101B30007307840738F09F5F5F4F220F331F441FE6
:101B4000AA1FA9F335D00E2E3AF0E0E832D091501A
:101B50005040E695001CCAF72BD0FE2F29D0660F07
:101B6000771F881FBB1F261737074807AB07B0E84A
:101B700009F0BB0B802DBF01FF2793585F4F3AF050
:101B80009E3F510578F00C94830C0C94CE0C5F3F73
:101B9000E4F3983ED4F3869577956795B795F795D6
:101BA0009F5FC9F7880F911D9695879597F90895BE
:101BB000E1E0660F771F881FBB1F6217730784075A
:101BC000BA0720F0621B730B840BBA0BEE1F88F769
:101BD000E09508950E94F20B08F48FEF0895052E0A
:101BE00097FB1EF400940E94060E57FD07D00E943A
:101BF0000E0E07FC03D04EF40C94060E5095409543
:101C0000309521953F4F4F4F5F4F089590958095A8
:101C1000709561957F4F8F4F9F4F0895A1E21A2EC7
:101C2000AA1BBB1BFD010DC0AA1FBB1FEE1FFF1F80
:101C3000A217B307E407F50720F0A21BB30BE40BD0
:101C4000F50B661F771F881F991F1A9469F7609517
:101C50007095809590959B01AC01BD01CF010895D1
:101C6000EE0FFF1F0590F491E02D09940F931F9341
:101C7000CF93DF938230910510F482E090E0E09101
:101C8000B201F091B30120E030E0A0E0B0E0309785
:101C900019F1408151810281138148175907C8F019
:101CA0008417950769F4109731F012960C931297E8
:101CB00013961C9327C00093B2011093B30122C066
:101CC0002115310519F04217530718F49A01BD0187
:101CD000EF01DF01F801DBCF21153105F9F0281BF9
:101CE000390B2430310580F48A819B81611571059F
:101CF00021F0FB019383828304C09093B30180930E
:101D0000B201FE01329644C0FE01E20FF31F81933F
:101D1000919322503109398328833AC02091B00130
:101D20003091B101232B41F420910501309106013E
:101D30003093B1012093B00120910301309104014F
:101D40002115310541F42DB73EB74091070150915F
:101D50000801241B350BE091B001F091B101E217AD
:101D6000F307A0F42E1B3F0B2817390778F0AC01BE
:101D70004E5F5F4F2417350748F04E0F5F1F50939B
:101D8000B1014093B0018193919302C0E0E0F0E093
:101D9000CF01DF91CF911F910F910895CF93DF93E2
:101DA000009709F481C0FC01329713821282A0913E
:101DB000B201B091B301109781F420813181820F7B
:101DC000931F2091B0013091B1012817390751F5C7
:101DD000F093B101E093B00167C0ED0120E030E085
:101DE000CE17DF0740F44A815B819E014115510502
:101DF000F1F0EA01F5CFD383C28340815181840F92
:101E0000951FC817D90759F488819981840F951FA8
:101E10000296918380838A819B819383828321159B
:101E2000310529F4F093B301E093B2013DC0E9011B
:101E3000FB83EA8349915991C40FD51FEC17FD0725
:101E400061F480819181840F951F0296E901998345
:101E50008883828193819B838A83E0E0F0E01296FD
:101E60008D919C911397009719F0FD01DC01F7CF3C
:101E70008D919C9111979D012E5F3F4F820F931F73
:101E80002091B0013091B1012817390769F43097DA
:101E900029F41092B3011092B20102C0138212828F
:101EA000B093B101A093B001DF91CF910895A0E06C
:101EB000B0E0EDE5FFE00C94D80CEC01009721F4C4
:101EC000CB010E94360EB4C0FC01E60FF71F9C0147
:101ED00022503109E217F30708F4A8C0D9010D9187
:101EE0001C91119706171707B0F00530110508F47B
:101EF0009BC0C80104978617970708F495C0025045
:101F00001109061B170B019311936D937C93CF015D
:101F10000E94CE0E89C05B01A01AB10A4C01800E4E
:101F2000911EA091B201B091B301612C712CE12CF2
:101F3000F12C109709F446C08D919C911197A8152A
:101F4000B905B1F56C0142E0C40ED11CCA14DB0422
:101F500078F14C018A189B08640142E0C40ED11C40
:101F60001296BC9012971396AC91B5E0CB16D104A3
:101F700040F0B282A38391828082D9016D937C93D9
:101F800009C00E5F1F4F800F911FF901918380835D
:101F9000EB2DFA2FE114F10431F0D7011396FC93E5
:101FA000EE93129741C0F093B301E093B2013CC0AD
:101FB0006816790608F43C017D0112960D90BC91DB
:101FC000A02DB7CF8091B0019091B10188169906EC
:101FD000E1F466167706C8F480910301909104013C
:101FE000009741F48DB79EB74091070150910801C9
:101FF000841B950BE817F907C8F4F093B101E0933F
:10200000B001F901718360830FC0CB010E94360ECD
:102010007C01009759F0A801BE010E942210CE0158
:102020000E94CE0EC70104C0CE0102C080E090E045
:10203000CDB7DEB7EEE00C94F40C81E090E0F894BC
:102040000C943210FB01DC0102C001900D92415052
:102050005040D8F70895FB01DC0101900D9200205B
:08206000E1F70895F894FFCFA9
:102068000101FF0000B4018000000000008905089C
:102078000490058F052020202057454C434F4D459F
:102088002120202020003153204C692D506F204DF5
:102098006F6E69746F7200566F6C746167653A2071
:1020A8000056202020004368617267696E672E2EF3
:1020B8002E002020202020202020202020004C4FEF
:1020C8005720424154544552592100506C65617360
:0A20D80065206368617267652E00E1
:00000001FF
